:1000000017C1000045C1000043C1000041C100000C
:100010003FC100003DC100003BC1000039C10000EC
:1000200037C1000035C1000033C1000031C10000FC
:100030002FC100002DC100002BC1000029C100000C
:1000400027C1000025C1000023C1000021C100001C
:100050001FC100001DC100001BC100000C943B0823
:1000600017C10000D2C70000A7C7000011C10000DF
:100070000FC100000DC100000BC1000009C100004C
:1000800007C1000005C1000003C1000001C100005C
:10009000FFC00000FDC00000FBC00000F9C0000070
:1000A000F7C00000F5C00000F3C00000F1C0000080
:1000B000EFC00000EDC00000EBC00000E9C0000090
:1000C000E7C00000E5C00000E3C00000E1C00000A0
:1000D000DFC00000DDC00000DBC00000D9C00000B0
:1000E000D7C00000C002C302B202B602BA02FA02CE
:1000F000C702CB02D102D502D902DF02E302E70236
:10010000FA02ED02F102F502AD03B103B503B90342
:10011000BD03C103C50332053905400547054E053A
:100120006605550566055C050000210024002700D2
:100130002A002D00300033000101000004010701F6
:100140000A0100002200250028002B002E003100AB
:10015000340002010000050108010B010505050539
:10016000070508080808020202020A0A080804042F
:10017000040401010101010101010303030303035D
:100180000303040707070C0C0C0C0C0C0C0C0202EC
:10019000020206060606060606060B0B0B0B0B0BE9
:1001A0000B0B010210202008081020401020408076
:1001B000020102010804020101020408102040802B
:1001C00080402010080402018004020180402010B9
:1001D0000804020108040201010204081020408002
:1001E000010204081020408000000A0B02090C0DD7
:1001F0000E080703040100000000000000000000DA
:1002000000000000000000000000000000000000EE
:1002100000000000121110000000000000000000AB
:100220000000000000000000000000000000850841
:1002300011241FBECFEFD1E2DEBFCDBF00E00CBF67
:1002400012E0A0E0B2E0E8EAFEE100E00BBF02C08D
:1002500007900D92A234B107D9F723E0A2E4B2E0EF
:1002600001C01D92A53EB207E1F711E0C8E1D1E05F
:1002700000E006C021970109802FFE010E942D0F8A
:10028000C731D10780E00807A9F7C7D70C94520FF0
:10029000B7CE2091D70230E0E8EDF2E080E090E0C8
:1002A00040E050E0421753073CF461917191860F92
:1002B000971F4F5F5F4FF6CF9093F9028093F8023C
:1002C0008FEF9FEF9093FB028093FA021092FC0253
:1002D0001092FD021092FE021092FF020895CF923A
:1002E000DF92EF92FF920F931F93CF93DF936C01F6
:1002F0007A018B01C0E0D0E0CE15DF0589F0D8018E
:100300006D918D01D601ED91FC910190F081E02D70
:10031000C6011995892B11F47E0102C02196ECCFFC
:10032000C701DF91CF911F910F91FF90EF90DF9068
:10033000CF900895FC01918D828D981761F0828D88
:10034000DF01A80FB11D5D968C91928D9F5F9F7309
:10035000928F90E008958FEF9FEF0895FC01918DAB
:10036000828D981731F0828DE80FF11D858D90E018
:1003700008958FEF9FEF0895FC01918D228D892FB5
:1003800090E0805C9F4F821B91098F73992708959D
:1003900084E093E0F1DF21E0892B09F420E0822F53
:1003A0000895FC01848DDF01A80FB11DA35ABF4F32
:1003B0002C91848D90E001968F739927848FA68964
:1003C000B7892C93A089B1898C9180648C93938D8B
:1003D000848D981306C00288F389E02D80818F7D7B
:1003E00080830895EF92FF920F931F93CF93DF9333
:1003F000EC0181E0888F9B8D8C8D981305C0E88976
:10040000F989808185FD23C0F62E0B8D10E00F5FEA
:100410001F4F0F731127E02E8C8DE8120BC00FB603
:1004200007FCFACFE889F989808185FFF5CFCE01F5
:10043000B8DFF2CF8B8DFE01E80FF11DE35AFF4FBD
:10044000F0820B8FEA89FB898081806207C0EE8988
:10045000FF896083E889F98980818064808381E0F5
:1004600090E0DF91CF911F910F91FF90EF90089551
:10047000CF93DF93EC01888D8823C1F0EA89FB8953
:10048000808185FD05C0A889B9898C9186FD0EC043
:100490000FB607FCF5CF808185FFF2CFA889B98917
:1004A0008C9185FFEDCFCE017CDFE8CFDF91CF913E
:1004B000089580E090E0892B19F06ADF811125C052
:1004C00080E090E0892B41F080E090E0892B21F0E2
:1004D0000E94000081111CC080E090E0892B41F057
:1004E00080E090E0892B21F00E940000811113C070
:1004F00080E090E0892BA1F080E090E0892B81F0F2
:100500000E94000081110AC008950E940000D8CF07
:100510000E940000E1CF0E940000EACF0C9400008E
:100520000895362F90E0FC01E851FE4F4491FC0104
:10053000EE55FE4F2491FC01E45AFE4F949199230D
:1005400009F46BC0442309F455C050E0FA01319717
:10055000E231F10508F04EC08827EE58FF4F8F4F6B
:100560000C942D0F809180008F7707C080918000C0
:100570008F7D03C080918000877F809380003AC088
:1005800084B58F7702C084B58F7D84BD33C08091E0
:10059000B0008F7703C08091B0008F7D8093B00052
:1005A00029C0809190008F7707C0809190008F7D47
:1005B00003C080919000877F809390001BC0809142
:1005C000A0008F7707C08091A0008F7D03C080912D
:1005D000A000877F8093A0000DC0809120018F77BD
:1005E00007C0809120018F7D03C080912001877F0B
:1005F00080932001E92FF0E0EE0FFF1FEE5BFE4F2E
:10060000A591B4918FB7F894EC91311103C0209566
:100610002E2301C02E2B2C938FBF0895CF93DF93F1
:1006200090E0FC01EE55FE4F2491FC01E45AFE4F90
:100630008491882361F190E0880F991FFC01E85DA7
:10064000FE4FC591D491FC01EE5BFE4FA591B49194
:10065000611109C09FB7F89488812095822388830F
:10066000EC912E230BC0623061F49FB7F89438816F
:10067000822F809583238883EC912E2B2C939FBF10
:1006800006C08FB7F894E8812E2B28838FBFDF91A7
:10069000CF910895CF93DF93FC012381222329F189
:1006A000EC0161E08481BADF61E08D81B7DF8B818D
:1006B000843011F0883031F461E08E81AFDF61E089
:1006C0008F8106C0833011F0863019F461E08E818D
:1006D000A5DF8FA58F3F49F061E0A0DF6EA581E027
:1006E00068278FA5DF91CF911CCFDF91CF9108951F
:1006F000CF93DF93FC012381222399F0EC01019039
:10070000F081E02D0480F581E02D60E019958FA542
:100710008F3F39F061E082DF6EA58FA5DF91CF9129
:1007200000CFDF91CF910895CF93DF93DC01477025
:10073000552766277727FA013197CD91DC911197DC
:10074000E730F10530F48827EC57FF4F8F4F0C94BA
:100750002D0FEC81FD8161E01BC0EC81FD8165E026
:1007600017C0EC81FD8164E013C0EC81FD8166E07F
:100770000FC0EC81FD8162E00BC0EC81FD816AE07D
:1007800007C0EC81FD8168E003C0EC81FD8169E078
:10079000CD01DF91CF911994CF93DF93EC01CB0181
:1007A000BA0126E030E040E050E00E94110F6230D4
:1007B00071058105910559F18CF46115710581056B
:1007C0009105F1F06130710581059105C1F5E88170
:1007D000F9810480F581E02D65E02DC0643071055C
:1007E0008105910511F1D4F0653071058105910500
:1007F00031F5E881F9810480F581E02D66E01BC0C8
:10080000E881F9810480F581E02D64E014C0E8817D
:10081000F9810480F581E02D61E00DC0E881F98166
:100820000480F581E02D63E006C0E881F981048051
:10083000F581E02D62E0CE01DF91CF911994DF9137
:10084000CF9108954370552766277727DC01ED91F6
:10085000FC910480F581E02D423051056105710560
:1008600071F0433051056105710559F04130510572
:100870006105710511F065E005C066E003C06AE03E
:1008800001C069E01994CF93DF93EC01CB01BA0169
:1008900023E030E040E050E00E94110F613071052C
:1008A0008105910581F0623071058105910591F016
:1008B000672B682B692BC1F4E881F9810480F581ED
:1008C000E02D64E00DC0E881F9810480F581E02D20
:1008D00061E006C0E881F9810480F581E02D62E0E5
:1008E000CE01DF91CF911994DF91CF91089543709C
:1008F000552766277727DC01ED91FC910480F5816F
:10090000E02D423051056105710571F0433051050C
:100910006105710559F0413051056105710511F00E
:1009200062E005C063E003C061E001C060E01994CB
:10093000CF93DF93EC01E881F9810480F581E02D0C
:100940008A81811102C060E001C062E0CE01199588
:10095000E881F9810480F581E02D8A81811102C04E
:1009600061E001C063E0CE0119958CA59DA58230A0
:10097000910538F0880F991F880F991F05970197E7
:10098000F1F7E881F9810480F581E02D8A818111F8
:1009900002C060E001C062E0CE01DF91CF91199406
:1009A000CF93DF93EC0120E030E0A9016C897D89D1
:1009B0008E899F890E94220E18161CF4E8A9F9A9B5
:1009C00002C0EAA9FBA9DF91CF911994CF92DF92DF
:1009D000EF92FF920F931F93CF93DF93FC0123813C
:1009E000243041F0283031F0233031F0263021F02E
:1009F00012E003C014E001C013E0EC012896E12CE2
:100A0000F12CC62ED12C01E0C6010E2C02C095950A
:100A100087950A94E2F7688180FD6027FE0134978C
:100A200080817FDDFFEFEF1AFF0A2196E11660F368
:100A3000DF91CF911F910F91FF90EF90DF90CF90BA
:100A400008950F931F93DC0113960C91139710E0F8
:100A500009301105D8F5F8018827E557FF4F8F4F6A
:100A60000C942D0FED91FC9111970084F185E02DF0
:100A700029C0ED91FC9111970284F385E02D22C0ED
:100A8000ED91FC9111970484F585E02D1BC0ED914B
:100A9000FC9111970684F785E02D14C0ED91FC912F
:100AA00011970088F189E02D0DC0ED91FC9111970F
:100AB0000288F389E02D06C0ED91FC91119704881E
:100AC000F589E02DCD011F910F9119941F910F9180
:100AD00008952F923F924F925F926F927F928F92E2
:100AE0009F92AF92BF92CF92DF92EF92FF920F93BD
:100AF0001F93CF93DF9300D01F92CDB7DEB71C01B9
:100B0000FC01C088D188E288F38884859585A68514
:100B1000B785C81AD90AEA0AFB0A648975898689E1
:100B200097899B01AC010E94260E4B015C01F101EB
:100B3000648D758D868D978D9B01AC01D0D69B0100
:100B4000AC01C501B40133D79AD7C114D104E10473
:100B5000F104A1F462307105810591050CF07CC0AF
:100B6000F10114A215A216A217A2148A158A168AD8
:100B7000178A14AA15AA16AA17AAF6C0F10104A981
:100B800015A926A937A91C141D041E041F0404F569
:100B900010161106120613064CF46C157D058E0511
:100BA0009F055CF52281211157C027C00115110551
:100BB0002105310509F450C06C157D058E059F0592
:100BC0000CF04AC0F1018281882309F445C039C084
:100BD0001016110612061306FCF4002711279801BF
:100BE0000C191D092E093F09601771078207930729
:100BF00024F4F1012281222379F19B01AC018827A1
:100C00009927DC01821B930BA40BB50BF10184AB7C
:100C100095ABA6ABB7AB20C0011511052105310579
:100C2000D9F08824992454018C189D08AE08BF0877
:100C3000681579058A059B057CF4F1018281811193
:100C40000BC030952095109501951F4F2F4F3F4FAA
:100C500004AB15AB26AB37ABF10184A895A8A6A8C9
:100C6000B7A881149104A104B10491F480AD91ADB1
:100C7000A2ADB3AD84AF95AFA6AFB7AF81E01C1402
:100C80001D041E041F040CF080E0F10182833AC0B1
:100C9000F101C4ACD5ACE6ACF7ACA7019601C70135
:100CA000B6011DD62B013C01C501B4011BD720E0C4
:100CB00030E040E850E4CAD720E030E040E85FE3AD
:100CC0000ED69B01AC01C301B20171D69B01AC01F0
:100CD000C701B60103D67B018C01F101E05CFF4F37
:100CE00060807180C280D3809301A601ABD71816B3
:100CF00014F073018601A701B801F10144AF55AFAB
:100D000066AF77AFFFEF8F1A9F0AAF0ABF0AF101F4
:100D100084AA95AAA6AAB7AA24AD35AD46AD57AD0B
:100D2000CA01B90129833A834B835C83ADD6F101B3
:100D300064A375A386A397A329813A814B815C8123
:100D400060E074E284E799E432D6F101648B758B3C
:100D5000868B978B2281211107C0DC01CB01B05813
:100D6000848B958BA68BB78B0F900F900F900F9065
:100D7000DF91CF911F910F91FF90EF90DF90CF9077
:100D8000BF90AF909F908F907F906F905F904F90AB
:100D90003F902F900895CF92DF92EF92FF921F9392
:100DA000CF93DF93FC01162F633009F05DC0828181
:100DB0008B3309F05EC0C081D0E0DC2FCC2781816D
:100DC000C82B2091AD033091AE034091AF035091F9
:100DD000B00365EF7FEF8AE090E0F2D720E036E9DC
:100DE00040E050E00E94110F69017A01CA01B90187
:100DF0002FEF3FEF40E050E00E94110F97FF04C03B
:100E0000615071098F4F9F4FCE01861B970B97FD45
:100E10000196092E000CAA0BBB0BA7019601280F07
:100E2000391F4A1F5B1FA0E0B6E90E94350F25EF6E
:100E30003FEF4AE050E0F5D78091B1039091B203C3
:100E4000A091B303B091B40382179307A407B50729
:100E500059F02093B1033093B2034093B3035093FE
:100E6000B40381EA93E035DE83E090E0811B9109D1
:100E700002C08FEF9FEFDF91CF911F91FF90EF9016
:100E8000DF90CF900895CF93DF93009771F0FC012E
:100E900001900020E9F73197AF01481B590BBC01C5
:100EA00084E093E01CDAEC0102C0C0E0D0E042E054
:100EB00050E06AE272E084E093E011DA8C0F9D1F4B
:100EC000DF91CF910895EAD74F925F926F927F9210
:100ED0008F929F92AF92BF92CF92DF92EF92FF924A
:100EE000CF93DF93EC016A017B0120E030E0A901A0
:100EF000C701B60158D587FF04C0F7FAF094F7F898
:100F0000F0948C8C9D8CAE8CBF8CA7019601C50192
:100F1000B40149D5882309F440C06CA97DA98EA9E4
:100F20009FA9E0D52B013C01A7019601C501B401A1
:100F30003ED59B01AC01C301B20188D6A0D56CABF4
:100F40007DAB8EAB9FABA701960160E070E080E0C7
:100F500090E42DD5E2D626E53EE04DE25FE376D67D
:100F600020E034E244E759E471D668AF79AF8AAF44
:100F70009BAFCC8EDD8EEE8EFF8ECE01DF91CF91BA
:100F8000FF90EF90DF90CF90BF90AF909F908F90A9
:100F90007F906F905F904F909CCDDF91CF91FF90AD
:100FA000EF90DF90CF90BF90AF909F908F907F9009
:100FB0006F905F904F9008951F920F920FB60F920F
:100FC00011240BB60F922F933F934F935F936F9320
:100FD0007F938F939F93AF93BF93EF93FF9384E09F
:100FE00093E0DFD9FF91EF91BF91AF919F918F91E6
:100FF0007F916F915F914F913F912F910F900BBE19
:101000000F900FBE0F901F9018951F920F920FB662
:101010000F9211240BB60F922F938F939F93EF9300
:10102000FF93E0911403F09115038081E0911A037E
:10103000F0911B0382FD12C0908180911D038F5F90
:101040008F7320911E03821751F0E0911D03F0E091
:10105000EC5FFC4F958F80931D0301C08081FF9151
:10106000EF919F918F912F910F900BBE0F900FBE1C
:101070000F901F9018951F920F920FB60F92112488
:101080002F933F938F939F93AF93BF93809143028E
:1010900090914402A0914502B091460230914202E3
:1010A00023E0230F2D3720F40196A11DB11D05C0AB
:1010B00026E8230F0296A11DB11D209342028093C2
:1010C000430290934402A0934502B093460280915C
:1010D000470290914802A0914902B0914A020196BC
:1010E000A11DB11D8093470290934802A09349022D
:1010F000B0934A02BF91AF919F918F913F912F91F1
:101100000F900FBE0F901F901895E4E0F3E013824C
:10111000128288EE93E0A0E0B0E084839583A683FA
:10112000B78384E092E09183808385EC90E095879B
:10113000848784EC90E09787868780EC90E0918BA1
:10114000808B81EC90E0938B828B82EC90E0958B8E
:10115000848B86EC90E0978B868B118E128E138E8B
:10116000148EE1EAF3E084E192E09183808381E0F0
:1011700083831486158616861786108A118A128A2A
:10118000138A148A158A168A178A80E090E0A0E8EC
:10119000BFE3808F918FA28FB38F148E158E168E22
:1011A000178E80A391A3A2A3B3A314A215A216A283
:1011B00017A221E030E035A724A72FEF27A710A61C
:1011C00011A612A613A627E0248326E0258324E097
:1011D000268325E0278314AA15AA16AA17AA10AEFB
:1011E00011AE12AE13AE14AE15AE16AE17AE80939E
:1011F000E1039093E203A093E303B093E40312822C
:101200001086118612861386CF0144DA40E050E042
:1012100060E87FE381EA93E057CE789484B58260FA
:1012200084BD84B5816084BD85B5826085BD85B58A
:10123000816085BD80916E00816080936E00109208
:101240008100809181008260809381008091810083
:101250008160809381008091800081608093800014
:101260008091B10084608093B1008091B000816072
:101270008093B00080919100826080939100809172
:1012800091008160809391008091900081608093B3
:1012900090008091A10082608093A1008091A100C4
:1012A00081608093A1008091A00081608093A00064
:1012B00080912101826080932101809121018160D0
:1012C0008093210180912001816080932001809191
:1012D0007A00846080937A0080917A0082608093A3
:1012E0007A0080917A00816080937A0080917A0000
:1012F000806880937A001092C10062E082E08ED90B
:1013000062E083E08BD961E085E088D961E086E026
:1013100085D961E087E082D961E08DE07FD961E025
:1013200088E07CD961E088E0FCD861E085E0F9D80C
:10133000C2E0C093D70284E690E09093D9028093F4
:10134000D8029093DB028093DA020E9449012FB702
:10135000F8948091430290914402A0914502B0918B
:1013600046022FBF8093FC029093FD02A093FE02E1
:10137000B093FF028093000390930103A0930203B4
:10138000B0930303E0911403F0911503C083E0913F
:101390001003F09111031082E0911203F0911303F6
:1013A00080E1808310921C03E0911803F0911903EF
:1013B00086E08083E0911603F091170380818061BD
:1013C0008083E0911603F091170380818860808309
:1013D000E0911603F0911703808180688083E0918B
:1013E0001603F091170380818F7D80838DE292E058
:1013F0004ADD20E030E048EC54E46091B90370919C
:10140000BA038091BB039091BC03CDD2882309F429
:101410004EC080E090E0A8ECB4E48093B9039093D0
:10142000BA03A093BB03B093BC0380E090E4ACE1AB
:10143000B4E48093E1039093E203A093E303B093B9
:10144000E4038091D5039091D603A091D703B09186
:10145000D803181619061A061B064CF56091B50339
:101460007091B6038091B7039091B8039B01AC01D2
:10147000EDD36B017C016091BD037091BE0380913F
:10148000BF039091C0039B01AC0129D29B01AC0129
:10149000C701B6018CD2F3D26093D5037093D60303
:1014A0008093D7039093D80381EA93E012DB40E066
:1014B00050E068EC72E481EA93E006DD01E012E0BE
:1014C00054E6252E312C812C66E9962EA12CB12CC8
:1014D0008FB7F894C0904302D0904402E090450248
:1014E000F09046028FBF8091D60281111AC029E880
:1014F000C21623E1D206E104F10498F00093D6026B
:101500001093D7023092D9022092D80244EF51E0D2
:101510005093DB024093DA020E94490160E088E0C8
:1015200000D88091D6028130D9F459E5C5165BE127
:10153000D506E104F104A0F01093D6021093D7026F
:1015400084EF91E09093D9028093D8029093DB02CC
:101550008093DA020E94490160E085E00E949102D6
:101560008091D602823051F499E2C91693E2D906ED
:10157000E104F10418F023E02093D6028091C50322
:101580009091C603A091C703B091C803892B8A2B01
:101590008B2B09F470C03FB7F8948091470290916B
:1015A0004802A0914902B0914A0226B5A89B05C005
:1015B0002F3F19F00196A11DB11D3FBFBA2FA92FD2
:1015C000982F8827820F911DA11DB11D2C013D016F
:1015D00042E0440C551C661C771C4A95D1F780915B
:1015E000C9039091CA03A091CB03B091CC03B3017E
:1015F000A201481B590B6A0B7B0B8091C50390918C
:10160000C603A091C703B091C803481759076A07DA
:101610007B0788F12091A3038091AD039091AE03E5
:10162000A091AF03B091B003222321F00196A11D38
:10163000B11D03C00197A109B1098093AD03909337
:10164000AE03A093AF03B093B0034091AD035091AC
:10165000AE036091AF037091B00381EA93E0F1D9DA
:101660004092C9035092CA036092CB037092CC039C
:1016700081EA93E02EDA8091D2029091D302A09178
:10168000D402B091D502A7019601281B390B4A0B51
:101690005B0B293C31054105510508F46FC02091D1
:1016A000AD033091AE034091AF035091B003ABE076
:1016B000B0E0DBD3A5019401B4D397FF03C07A5601
:1016C0008F4F9F4F2AE0660F771F881F991F2A951B
:1016D000D1F7A5019401A5D3C90140918C02509185
:1016E0008D024817590709F449C090938D028093E1
:1016F0008C0242E740934C0250E750934D023093E6
:101700004E0220934F028BE38093500250911F03AF
:1017100040912003252F30E0842F90E0541738F0BB
:101720004FE350E0421B530B840F951F03C0821BF5
:10173000930B019705970CF4C3C045E050E06CE4AF
:1017400072E084E093E00E946F01BFC06091D1021B
:10175000623030F181E0860F8093D102E62FF0E015
:10176000EF56FD4FC0836150E0918F02F0919002DF
:1017700083E992E019951816190674F4E0910403B0
:10178000F09105030680F781E02D84E093E0199540
:10179000EC010196D9F62BC01092D102892B71F37E
:1017A0008091D1028130B1F4C03719F080E090E02F
:1017B00002C08BEC96E09093900280938F02892B6D
:1017C00039F01093D102C0938E02C0939202D6CF0B
:1017D0001092D1028091D1028111D0CFC237D105B0
:1017E00069F60093D10222E720939102C7CF80913E
:1017F000000390910103A0910203B0910303C81666
:10180000D906EA06FB0608F458C08091FC029091C4
:10181000FD02A091FE02B091FF02A7019601281BD4
:10182000390B4A0B5B0BCA01B9012091F8023091C8
:10183000F902032E000C440B550BD1D2DB01209191
:10184000D702622E712CE8EDF2E0C0E0D0E040E07B
:1018500050E0C615D7054CF421913191420F531F2A
:101860004A175B0724F42196F4CFC0E0D0E0CA0108
:10187000861B970B092E000CAA0BBB0BC80ED91E9A
:10188000EA1EFB1EC0920003D0920103E092020305
:10189000F09203038091FA029091FB02C817D907D6
:1018A00061F0C0FF02C060E001C061E08DE00E9415
:1018B0009102D093FB02C093FA020E94590208CE13
:1018C00000934B0289E392E0DEDAC092D202D0921A
:1018D000D302E092D402F092D50250CF5058BB27E9
:1018E000AA270ED075C166D130F06BD120F031F44B
:1018F0009F3F11F41EF45BC10EF4E095E7FB51C16C
:10190000E92F77D180F3BA17620773078407950729
:1019100018F071F49EF58FC10EF4E0950B2EBA2FDE
:10192000A02D0B01B90190010C01CA01A0011124E5
:10193000FF27591B99F0593F50F4503E68F11A1691
:10194000F040A22F232F342F4427585FF3CF469522
:1019500037952795A795F0405395C9F77EF41F1644
:10196000BA0B620B730B840BBAF09150A1F0FF0F0E
:10197000BB1F661F771F881FC2F70EC0BA0F621FFA
:10198000731F841F48F4879577956795B795F795EA
:101990009E3F08F0B3CF9395880F08F09927EE0F7C
:1019A000979587950895D9D008F481E008950CD0D3
:1019B0000FC107D140F0FED030F021F45F3F19F0A5
:1019C000F0C0511139C1F3C014D198F39923C9F370
:1019D0005523B1F3951B550BBB27AA276217730735
:1019E000840738F09F5F5F4F220F331F441FAA1FE9
:1019F000A9F333D00E2E3AF0E0E830D091505040A9
:101A0000E695001CCAF729D0FE2F27D0660F771F56
:101A1000881FBB1F261737074807AB07B0E809F038
:101A2000BB0B802DBF01FF2793585F4F2AF09E3FCD
:101A3000510568F0B6C000C15F3FECF3983EDCF39F
:101A4000869577956795B795F7959F5FC9F7880F46
:101A5000911D9695879597F90895E1E0660F771F98
:101A6000881FBB1F621773078407BA0720F0621B29
:101A7000730B840BBA0BEE1F88F7E095089504D022
:101A80006894B111D9C00895BCD088F09F5790F0E8
:101A9000B92F9927B751A0F0D1F0660F771F881F93
:101AA000991F1AF0BA95C9F712C0B13081F0C3D0AE
:101AB000B1E00895C0C0672F782F8827B85F39F04C
:101AC000B93FCCF3869577956795B395D9F73EF4F2
:101AD00090958095709561957F4F8F4F9F4F08959A
:101AE000E89409C097FB3EF49095809570956195B8
:101AF0007F4F8F4F9F4F9923A9F0F92F96E9BB276E
:101B00009395F695879577956795B795F111F8CFE9
:101B1000FAF4BB0F11F460FF1BC06F5F7F4F8F4F54
:101B20009F4F16C0882311F096E911C0772321F04A
:101B30009EE8872F762F05C0662371F096E8862FE2
:101B400070E060E02AF09A95660F771F881FDAF739
:101B5000880F9695879597F90895990F0008550F66
:101B6000AA0BE0E8FEEF16161706E807F907C0F023
:101B700012161306E407F50798F0621B730B840B2B
:101B8000950B39F40A2661F0232B242B252B21F405
:101B900008950A2609F4A140A6958FEF811D811DA5
:101BA000089597F99F6780E870E060E008959FEFDF
:101BB00080EC089500240A941616170618060906E4
:101BC000089500240A9412161306140605060895B3
:101BD000092E0394000C11F4882352F0BB0F40F43B
:101BE000BF2B11F460FF04C06F5F7F4F8F4F9F4F7B
:101BF000089557FD9058440F551F59F05F3F71F0FD
:101C00004795880F97FB991F61F09F3F79F0879563
:101C10000895121613061406551FF2CF4695F1DFEC
:101C200008C0161617061806991FF1CF869571057C
:101C3000610508940895E894BB2766277727CB01B0
:101C400097F908958ADF08F48FEF08950BD0C0CF7D
:101C5000B1DF28F0B6DF18F0952309F0A2CFA7CFA7
:101C60001124EACFC6DFA0F3959FD1F3950F50E082
:101C7000551F629FF001729FBB27F00DB11D639F3E
:101C8000AA27F00DB11DAA1F649F6627B00DA11DE4
:101C9000661F829F2227B00DA11D621F739FB00D8A
:101CA000A11D621F839FA00D611D221F749F3327FA
:101CB000A00D611D231F849F600D211D822F762F93
:101CC0006A2F11249F5750408AF0E1F088234AF090
:101CD000EE0FFF1FBB1F661F771F881F91505040DC
:101CE000A9F79E3F510570F05CCFA6CF5F3FECF3A4
:101CF000983EDCF3869577956795B795F795E795C8
:101D00009F5FC1F7FE2B880F911D9695879597F9D8
:101D1000089511F40EF44BCF3EC073DFD0F3992336
:101D2000D9F3CEF39F57550B87FF43D00024A0E68D
:101D300040EA900180585695979528F4805C660F8C
:101D4000771F881F20F026173707480730F4621BDB
:101D5000730B840B202931294A2BA69517940794DD
:101D6000202531254A2758F7660F771F881F20F056
:101D700026173707480730F4620B730B840B200DCE
:101D8000311D411DA09581F7B901842F9158880F0D
:101D90009695879508959F3F31F0915020F487954F
:101DA00077956795B795880F911D9695879597F9C3
:101DB000089591505040660F771F881FD2F70895FD
:101DC000DB018F939F9351D0BF91AF91A29F800D64
:101DD000911DA39F900DB29F900D11240895A1E233
:101DE0001A2EAA1BBB1BFD010DC0AA1FBB1FEE1F95
:101DF000FF1FA217B307E407F50720F0A21BB30BE0
:101E0000E40BF50B661F771F881F991F1A9469F75B
:101E100060957095809590959B01AC01BD01CF01B7
:101E20000895052E97FB16F400940FD057FD05D0AA
:101E3000D6DF07FC02D046F408C050954095309597
:101E400021953F4F4F4F5F4F089590958095709526
:101E500061957F4F8F4F9F4F0895EE0FFF1F881F93
:101E60008BBF0790F691E02D199409D0A59F900D96
:101E7000B49F900DA49F800D911D11240895A29FE1
:101E8000B001B39FC001A39F700D811D1124911D4E
:101E9000B29F700D811D1124911D089581E090E085
:081EA000F89400C0F894FFCF94
:101EA80000000000F2016F01BC019A01AE01380286
:101EB8000000000078034A03E6042105D0049804D2
:101EC800770443042204CC0394030D0A005374617D
:101ED800727465642E2E2E0A00626C6F636B6564E3
:021EE8000000F8
:00000001FF
